{
  "_format": "hh-sol-artifact-1",
  "contractName": "TicketNft",
  "sourceName": "contracts/TicketNft.sol",
  "abi": [
    {
      "inputs": [
        {
          "internalType": "string",
          "name": "_name",
          "type": "string"
        },
        {
          "internalType": "string",
          "name": "_symbol",
          "type": "string"
        }
      ],
      "stateMutability": "nonpayable",
      "type": "constructor"
    },
    {
      "inputs": [
        {
          "internalType": "address",
          "name": "sender",
          "type": "address"
        },
        {
          "internalType": "uint256",
          "name": "tokenId",
          "type": "uint256"
        },
        {
          "internalType": "address",
          "name": "owner",
          "type": "address"
        }
      ],
      "name": "ERC721IncorrectOwner",
      "type": "error"
    },
    {
      "inputs": [
        {
          "internalType": "address",
          "name": "operator",
          "type": "address"
        },
        {
          "internalType": "uint256",
          "name": "tokenId",
          "type": "uint256"
        }
      ],
      "name": "ERC721InsufficientApproval",
      "type": "error"
    },
    {
      "inputs": [
        {
          "internalType": "address",
          "name": "approver",
          "type": "address"
        }
      ],
      "name": "ERC721InvalidApprover",
      "type": "error"
    },
    {
      "inputs": [
        {
          "internalType": "address",
          "name": "operator",
          "type": "address"
        }
      ],
      "name": "ERC721InvalidOperator",
      "type": "error"
    },
    {
      "inputs": [
        {
          "internalType": "address",
          "name": "owner",
          "type": "address"
        }
      ],
      "name": "ERC721InvalidOwner",
      "type": "error"
    },
    {
      "inputs": [
        {
          "internalType": "address",
          "name": "receiver",
          "type": "address"
        }
      ],
      "name": "ERC721InvalidReceiver",
      "type": "error"
    },
    {
      "inputs": [
        {
          "internalType": "address",
          "name": "sender",
          "type": "address"
        }
      ],
      "name": "ERC721InvalidSender",
      "type": "error"
    },
    {
      "inputs": [
        {
          "internalType": "uint256",
          "name": "tokenId",
          "type": "uint256"
        }
      ],
      "name": "ERC721NonexistentToken",
      "type": "error"
    },
    {
      "inputs": [
        {
          "internalType": "address",
          "name": "owner",
          "type": "address"
        }
      ],
      "name": "OwnableInvalidOwner",
      "type": "error"
    },
    {
      "inputs": [
        {
          "internalType": "address",
          "name": "account",
          "type": "address"
        }
      ],
      "name": "OwnableUnauthorizedAccount",
      "type": "error"
    },
    {
      "anonymous": false,
      "inputs": [
        {
          "indexed": true,
          "internalType": "address",
          "name": "owner",
          "type": "address"
        },
        {
          "indexed": true,
          "internalType": "address",
          "name": "approved",
          "type": "address"
        },
        {
          "indexed": true,
          "internalType": "uint256",
          "name": "tokenId",
          "type": "uint256"
        }
      ],
      "name": "Approval",
      "type": "event"
    },
    {
      "anonymous": false,
      "inputs": [
        {
          "indexed": true,
          "internalType": "address",
          "name": "owner",
          "type": "address"
        },
        {
          "indexed": true,
          "internalType": "address",
          "name": "operator",
          "type": "address"
        },
        {
          "indexed": false,
          "internalType": "bool",
          "name": "approved",
          "type": "bool"
        }
      ],
      "name": "ApprovalForAll",
      "type": "event"
    },
    {
      "anonymous": false,
      "inputs": [
        {
          "indexed": false,
          "internalType": "uint256",
          "name": "_fromTokenId",
          "type": "uint256"
        },
        {
          "indexed": false,
          "internalType": "uint256",
          "name": "_toTokenId",
          "type": "uint256"
        }
      ],
      "name": "BatchMetadataUpdate",
      "type": "event"
    },
    {
      "anonymous": false,
      "inputs": [
        {
          "indexed": false,
          "internalType": "uint256",
          "name": "_tokenId",
          "type": "uint256"
        }
      ],
      "name": "MetadataUpdate",
      "type": "event"
    },
    {
      "anonymous": false,
      "inputs": [
        {
          "indexed": true,
          "internalType": "uint256",
          "name": "tokenId",
          "type": "uint256"
        },
        {
          "indexed": false,
          "internalType": "string",
          "name": "seatNumber",
          "type": "string"
        },
        {
          "indexed": false,
          "internalType": "string",
          "name": "role",
          "type": "string"
        }
      ],
      "name": "MetadataUpdated",
      "type": "event"
    },
    {
      "anonymous": false,
      "inputs": [
        {
          "indexed": true,
          "internalType": "address",
          "name": "to",
          "type": "address"
        },
        {
          "indexed": true,
          "internalType": "uint256",
          "name": "tokenId",
          "type": "uint256"
        }
      ],
      "name": "Minted",
      "type": "event"
    },
    {
      "anonymous": false,
      "inputs": [
        {
          "indexed": true,
          "internalType": "address",
          "name": "previousOwner",
          "type": "address"
        },
        {
          "indexed": true,
          "internalType": "address",
          "name": "newOwner",
          "type": "address"
        }
      ],
      "name": "OwnershipTransferred",
      "type": "event"
    },
    {
      "anonymous": false,
      "inputs": [
        {
          "indexed": true,
          "internalType": "address",
          "name": "to",
          "type": "address"
        },
        {
          "indexed": true,
          "internalType": "uint256",
          "name": "tokenId",
          "type": "uint256"
        },
        {
          "indexed": false,
          "internalType": "string",
          "name": "uri",
          "type": "string"
        }
      ],
      "name": "TokenURIChanged",
      "type": "event"
    },
    {
      "anonymous": false,
      "inputs": [
        {
          "indexed": true,
          "internalType": "address",
          "name": "from",
          "type": "address"
        },
        {
          "indexed": true,
          "internalType": "address",
          "name": "to",
          "type": "address"
        },
        {
          "indexed": true,
          "internalType": "uint256",
          "name": "tokenId",
          "type": "uint256"
        }
      ],
      "name": "Transfer",
      "type": "event"
    },
    {
      "inputs": [
        {
          "internalType": "address",
          "name": "to",
          "type": "address"
        },
        {
          "internalType": "uint256",
          "name": "tokenId",
          "type": "uint256"
        }
      ],
      "name": "approve",
      "outputs": [],
      "stateMutability": "nonpayable",
      "type": "function"
    },
    {
      "inputs": [
        {
          "internalType": "address",
          "name": "owner",
          "type": "address"
        }
      ],
      "name": "balanceOf",
      "outputs": [
        {
          "internalType": "uint256",
          "name": "",
          "type": "uint256"
        }
      ],
      "stateMutability": "view",
      "type": "function"
    },
    {
      "inputs": [
        {
          "internalType": "uint256[]",
          "name": "tokenIds",
          "type": "uint256[]"
        }
      ],
      "name": "bulkBurn",
      "outputs": [],
      "stateMutability": "nonpayable",
      "type": "function"
    },
    {
      "inputs": [
        {
          "internalType": "address[]",
          "name": "receivers",
          "type": "address[]"
        },
        {
          "internalType": "string[]",
          "name": "uris",
          "type": "string[]"
        },
        {
          "internalType": "string[]",
          "name": "seatNumbers",
          "type": "string[]"
        },
        {
          "internalType": "string[]",
          "name": "roles",
          "type": "string[]"
        }
      ],
      "name": "bulkMint",
      "outputs": [],
      "stateMutability": "nonpayable",
      "type": "function"
    },
    {
      "inputs": [
        {
          "internalType": "uint256",
          "name": "tokenId",
          "type": "uint256"
        }
      ],
      "name": "burn",
      "outputs": [],
      "stateMutability": "nonpayable",
      "type": "function"
    },
    {
      "inputs": [
        {
          "internalType": "uint256",
          "name": "tokenId",
          "type": "uint256"
        }
      ],
      "name": "getApproved",
      "outputs": [
        {
          "internalType": "address",
          "name": "",
          "type": "address"
        }
      ],
      "stateMutability": "view",
      "type": "function"
    },
    {
      "inputs": [
        {
          "internalType": "address",
          "name": "receiver",
          "type": "address"
        }
      ],
      "name": "getTicketMetadata",
      "outputs": [
        {
          "internalType": "uint256",
          "name": "tokenId",
          "type": "uint256"
        },
        {
          "internalType": "string",
          "name": "tokenURI",
          "type": "string"
        },
        {
          "internalType": "string",
          "name": "seatNumber",
          "type": "string"
        },
        {
          "internalType": "string",
          "name": "role",
          "type": "string"
        }
      ],
      "stateMutability": "view",
      "type": "function"
    },
    {
      "inputs": [],
      "name": "getUsedReceivers",
      "outputs": [
        {
          "internalType": "address[]",
          "name": "",
          "type": "address[]"
        }
      ],
      "stateMutability": "view",
      "type": "function"
    },
    {
      "inputs": [],
      "name": "getUsedSeatNumbers",
      "outputs": [
        {
          "internalType": "string[]",
          "name": "",
          "type": "string[]"
        }
      ],
      "stateMutability": "view",
      "type": "function"
    },
    {
      "inputs": [
        {
          "internalType": "address",
          "name": "owner",
          "type": "address"
        },
        {
          "internalType": "address",
          "name": "operator",
          "type": "address"
        }
      ],
      "name": "isApprovedForAll",
      "outputs": [
        {
          "internalType": "bool",
          "name": "",
          "type": "bool"
        }
      ],
      "stateMutability": "view",
      "type": "function"
    },
    {
      "inputs": [],
      "name": "name",
      "outputs": [
        {
          "internalType": "string",
          "name": "",
          "type": "string"
        }
      ],
      "stateMutability": "view",
      "type": "function"
    },
    {
      "inputs": [],
      "name": "owner",
      "outputs": [
        {
          "internalType": "address",
          "name": "",
          "type": "address"
        }
      ],
      "stateMutability": "view",
      "type": "function"
    },
    {
      "inputs": [
        {
          "internalType": "uint256",
          "name": "tokenId",
          "type": "uint256"
        }
      ],
      "name": "ownerOf",
      "outputs": [
        {
          "internalType": "address",
          "name": "",
          "type": "address"
        }
      ],
      "stateMutability": "view",
      "type": "function"
    },
    {
      "inputs": [],
      "name": "renounceOwnership",
      "outputs": [],
      "stateMutability": "nonpayable",
      "type": "function"
    },
    {
      "inputs": [
        {
          "internalType": "address",
          "name": "receiver",
          "type": "address"
        },
        {
          "internalType": "string",
          "name": "tokenURI",
          "type": "string"
        },
        {
          "internalType": "string",
          "name": "seatNumber",
          "type": "string"
        },
        {
          "internalType": "string",
          "name": "role",
          "type": "string"
        }
      ],
      "name": "safeMint",
      "outputs": [],
      "stateMutability": "nonpayable",
      "type": "function"
    },
    {
      "inputs": [
        {
          "internalType": "address",
          "name": "from",
          "type": "address"
        },
        {
          "internalType": "address",
          "name": "to",
          "type": "address"
        },
        {
          "internalType": "uint256",
          "name": "tokenId",
          "type": "uint256"
        }
      ],
      "name": "safeTransferFrom",
      "outputs": [],
      "stateMutability": "nonpayable",
      "type": "function"
    },
    {
      "inputs": [
        {
          "internalType": "address",
          "name": "from",
          "type": "address"
        },
        {
          "internalType": "address",
          "name": "to",
          "type": "address"
        },
        {
          "internalType": "uint256",
          "name": "tokenId",
          "type": "uint256"
        },
        {
          "internalType": "bytes",
          "name": "data",
          "type": "bytes"
        }
      ],
      "name": "safeTransferFrom",
      "outputs": [],
      "stateMutability": "nonpayable",
      "type": "function"
    },
    {
      "inputs": [
        {
          "internalType": "address",
          "name": "operator",
          "type": "address"
        },
        {
          "internalType": "bool",
          "name": "approved",
          "type": "bool"
        }
      ],
      "name": "setApprovalForAll",
      "outputs": [],
      "stateMutability": "nonpayable",
      "type": "function"
    },
    {
      "inputs": [
        {
          "internalType": "bytes4",
          "name": "interfaceId",
          "type": "bytes4"
        }
      ],
      "name": "supportsInterface",
      "outputs": [
        {
          "internalType": "bool",
          "name": "",
          "type": "bool"
        }
      ],
      "stateMutability": "view",
      "type": "function"
    },
    {
      "inputs": [],
      "name": "symbol",
      "outputs": [
        {
          "internalType": "string",
          "name": "",
          "type": "string"
        }
      ],
      "stateMutability": "view",
      "type": "function"
    },
    {
      "inputs": [
        {
          "internalType": "uint256",
          "name": "tokenId",
          "type": "uint256"
        }
      ],
      "name": "tokenURI",
      "outputs": [
        {
          "internalType": "string",
          "name": "",
          "type": "string"
        }
      ],
      "stateMutability": "view",
      "type": "function"
    },
    {
      "inputs": [],
      "name": "totalSupply",
      "outputs": [
        {
          "internalType": "uint256",
          "name": "",
          "type": "uint256"
        }
      ],
      "stateMutability": "view",
      "type": "function"
    },
    {
      "inputs": [
        {
          "internalType": "address",
          "name": "from",
          "type": "address"
        },
        {
          "internalType": "address",
          "name": "to",
          "type": "address"
        },
        {
          "internalType": "uint256",
          "name": "tokenId",
          "type": "uint256"
        }
      ],
      "name": "transferFrom",
      "outputs": [],
      "stateMutability": "nonpayable",
      "type": "function"
    },
    {
      "inputs": [
        {
          "internalType": "address",
          "name": "newOwner",
          "type": "address"
        }
      ],
      "name": "transferOwnership",
      "outputs": [],
      "stateMutability": "nonpayable",
      "type": "function"
    },
    {
      "inputs": [
        {
          "internalType": "uint256",
          "name": "tokenId",
          "type": "uint256"
        },
        {
          "internalType": "string",
          "name": "tokenURI",
          "type": "string"
        }
      ],
      "name": "updateTokenURI",
      "outputs": [],
      "stateMutability": "nonpayable",
      "type": "function"
    }
  ],
  "bytecode": "0x60806040523480156200001157600080fd5b50604051620028d5380380620028d58339810160408190526200003491620001b9565b3382826000620000458382620002b4565b506001620000548282620002b4565b5050506001600160a01b0381166200008657604051631e4fbdf760e01b81526000600482015260240160405180910390fd5b62000091816200009f565b505060016008555062000380565b600780546001600160a01b038381166001600160a01b0319831681179093556040519116919082907f8be0079c531659141344cd1fd0a4f28419497f9722a3daafe3b4186f6b6457e090600090a35050565b634e487b7160e01b600052604160045260246000fd5b600082601f8301126200011957600080fd5b81516001600160401b0380821115620001365762000136620000f1565b604051601f8301601f19908116603f01168101908282118183101715620001615762000161620000f1565b81604052838152602092508660208588010111156200017f57600080fd5b600091505b83821015620001a3578582018301518183018401529082019062000184565b6000602085830101528094505050505092915050565b60008060408385031215620001cd57600080fd5b82516001600160401b0380821115620001e557600080fd5b620001f38683870162000107565b935060208501519150808211156200020a57600080fd5b50620002198582860162000107565b9150509250929050565b600181811c908216806200023857607f821691505b6020821081036200025957634e487b7160e01b600052602260045260246000fd5b50919050565b601f821115620002af576000816000526020600020601f850160051c810160208610156200028a5750805b601f850160051c820191505b81811015620002ab5782815560010162000296565b5050505b505050565b81516001600160401b03811115620002d057620002d0620000f1565b620002e881620002e1845462000223565b846200025f565b602080601f831160018114620003205760008415620003075750858301515b600019600386901b1c1916600185901b178555620002ab565b600085815260208120601f198616915b82811015620003515788860151825594840194600190910190840162000330565b5085821015620003705787850151600019600388901b60f8161c191681555b5050505050600190811b01905550565b61254580620003906000396000f3fe608060405234801561001057600080fd5b50600436106101735760003560e01c806370a08231116100de5780639e124d6911610097578063c87b56dd11610071578063c87b56dd14610337578063e985e9c51461034a578063eabfaafe1461035d578063f2fde38b1461037057600080fd5b80639e124d69146102fe578063a22cb46514610311578063b88d4fde1461032457600080fd5b806370a0823114610292578063715018a6146102a5578063782d783f146102ad5780638da5cb5b146102d05780638fa34f70146102e157806395d89b41146102f657600080fd5b806318e97fd11161013057806318e97fd11461021e5780631e5cc7131461023157806323b872dd1461024657806342842e0e1461025957806342966c681461026c5780636352211e1461027f57600080fd5b806301ffc9a71461017857806303a80dfb146101a057806306fdde03146101b5578063081812fc146101ca578063095ea7b3146101f557806318160ddd14610208575b600080fd5b61018b610186366004611c23565b610383565b60405190151581526020015b60405180910390f35b6101b36101ae366004611d08565b6103ae565b005b6101bd610761565b6040516101979190611df1565b6101dd6101d8366004611e04565b6107f3565b6040516001600160a01b039091168152602001610197565b6101b3610203366004611e1d565b61081c565b61021061082b565b604051908152602001610197565b6101b361022c366004611e47565b610841565b61023961088d565b6040516101979190611e8e565b6101b3610254366004611ef2565b610966565b6101b3610267366004611ef2565b6109f1565b6101b361027a366004611e04565b610a0c565b6101dd61028d366004611e04565b610a88565b6102106102a0366004611f2e565b610a93565b6101b3610adb565b6102c06102bb366004611f2e565b610aef565b6040516101979493929190611f49565b6007546001600160a01b03166101dd565b6102e9610d0c565b6040516101979190611f93565b6101bd610d6d565b6101b361030c36600461202c565b610d7c565b6101b361031f36600461206e565b610db8565b6101b36103323660046120aa565b610dc3565b6101bd610345366004611e04565b610dda565b61018b61035836600461211a565b610eeb565b6101b361036b36600461214d565b610f19565b6101b361037e366004611f2e565b611193565b60006001600160e01b03198216632483248360e11b14806103a857506103a8826111d1565b92915050565b6001600160a01b0384166104095760405162461bcd60e51b815260206004820152601f60248201527f43616e6e6f74206d696e7420746f20746865207a65726f20616464726573730060448201526064015b60405180910390fd5b61041284611221565b1561045f5760405162461bcd60e51b815260206004820152601e60248201527f52656365697665722068617320616c7265616479206265656e207573656400006044820152606401610400565b61046882611280565b156104bf5760405162461bcd60e51b815260206004820152602160248201527f53656174206e756d6265722068617320616c7265616479206265656e207573656044820152601960fa1b6064820152608401610400565b6104c88161130e565b1561051f5760405162461bcd60e51b815260206004820152602160248201527f4c656164657220526f6c652068617320616c7265616479206265656e207573656044820152601960fa1b6064820152608401610400565b60085461052c858261139c565b6105368185611401565b604080516080810182528281526020808201878152828401879052606083018690526001600160a01b038916600090815260099092529290208151815591519091906001820190610587908261229b565b506040820151600282019061059c908261229b565b50606082015160038201906105b1908261229b565b5050600a805460018082019092557fc65a7bb8d6351c1cf70c95a316cc6a92839c986682d98bc35f958f4883f9d2a80180546001600160a01b0319166001600160a01b038916179055600b805491820181556000527f0175b7a638427703f0dbe7bb9bbf987a2551717b34e79f33b5b1008d1fa01db9019050610634848261229b565b50604051653632b0b232b960d11b60208201526026016040516020818303038152906040528051906020012082604051602001610671919061235b565b60405160208183030381529060405280519060200120036106ca57600c80546001810182556000919091527fdf6966c971051c3d54ec59162606531493a51404a002842f56009d7e5cf4a8c7016106c8838261229b565b505b60405181906001600160a01b038716907f30385c845b448a36257a6a1716e6ad2e1bc2cbe333cde1e69fe849ad6511adfe90600090a380856001600160a01b03167f8b781fcc9d1a958b4e7e04390a81f45bdec2dc61341e7b423a537074275dc70d8660405161073a9190611df1565b60405180910390a3600160086000828254610755919061238d565b90915550505050505050565b60606000805461077090612211565b80601f016020809104026020016040519081016040528092919081815260200182805461079c90612211565b80156107e95780601f106107be576101008083540402835291602001916107e9565b820191906000526020600020905b8154815290600101906020018083116107cc57829003601f168201915b5050505050905090565b60006107fe82611451565b506000828152600460205260409020546001600160a01b03166103a8565b61082782823361148a565b5050565b6000600160085461083c91906123a0565b905090565b610849611497565b6108538282611401565b806009600061086185610a88565b6001600160a01b03168152602081019190915260400160002060010190610888908261229b565b505050565b6060600b805480602002602001604051908101604052809291908181526020016000905b8282101561095d5783829060005260206000200180546108d090612211565b80601f01602080910402602001604051908101604052809291908181526020018280546108fc90612211565b80156109495780601f1061091e57610100808354040283529160200191610949565b820191906000526020600020905b81548152906001019060200180831161092c57829003601f168201915b5050505050815260200190600101906108b1565b50505050905090565b6001600160a01b03821661099057604051633250574960e11b815260006004820152602401610400565b600061099d8383336114c4565b9050836001600160a01b0316816001600160a01b0316146109eb576040516364283d7b60e01b81526001600160a01b0380861660048301526024820184905282166044820152606401610400565b50505050565b61088883838360405180602001604052806000815250610dc3565b610a14611497565b6000610a1f82610a88565b9050610a2a826115bd565b610a438260405180602001604052806000815250611401565b6001600160a01b038116600090815260096020526040812081815590610a6c6001830182611bbf565b610a7a600283016000611bbf565b6109eb600383016000611bbf565b60006103a882611451565b60006001600160a01b038216610abf576040516322718ad960e21b815260006004820152602401610400565b506001600160a01b031660009081526003602052604090205490565b610ae3611497565b610aed60006115f8565b565b60006060806060600060096000876001600160a01b03166001600160a01b0316815260200190815260200160002060405180608001604052908160008201548152602001600182018054610b4290612211565b80601f0160208091040260200160405190810160405280929190818152602001828054610b6e90612211565b8015610bbb5780601f10610b9057610100808354040283529160200191610bbb565b820191906000526020600020905b815481529060010190602001808311610b9e57829003601f168201915b50505050508152602001600282018054610bd490612211565b80601f0160208091040260200160405190810160405280929190818152602001828054610c0090612211565b8015610c4d5780601f10610c2257610100808354040283529160200191610c4d565b820191906000526020600020905b815481529060010190602001808311610c3057829003601f168201915b50505050508152602001600382018054610c6690612211565b80601f0160208091040260200160405190810160405280929190818152602001828054610c9290612211565b8015610cdf5780601f10610cb457610100808354040283529160200191610cdf565b820191906000526020600020905b815481529060010190602001808311610cc257829003601f168201915b505050919092525050815160208301516040840151606090940151919a9099509297509550909350505050565b6060600a8054806020026020016040519081016040528092919081815260200182805480156107e957602002820191906000526020600020905b81546001600160a01b03168152600190910190602001808311610d46575050505050905090565b60606001805461077090612211565b610d84611497565b60005b8181101561088857610db0838383818110610da457610da46123b3565b90506020020135610a0c565b600101610d87565b61082733838361164a565b610dce848484610966565b6109eb848484846116e9565b6060610de582611451565b5060008281526006602052604081208054610dff90612211565b80601f0160208091040260200160405190810160405280929190818152602001828054610e2b90612211565b8015610e785780601f10610e4d57610100808354040283529160200191610e78565b820191906000526020600020905b815481529060010190602001808311610e5b57829003601f168201915b505050505090506000610e9660408051602081019091526000815290565b90508051600003610ea8575092915050565b815115610eda578082604051602001610ec29291906123c9565b60405160208183030381529060405292505050919050565b610ee384611812565b949350505050565b6001600160a01b03918216600090815260056020908152604080832093909416825291909152205460ff1690565b610f21611497565b868514610f7b5760405162461bcd60e51b815260206004820152602260248201527f52656365697665727320616e642055524973206c656e677468206d69736d61746044820152610c6d60f31b6064820152608401610400565b868314610fdc5760405162461bcd60e51b815260206004820152602960248201527f52656365697665727320616e6420736561744e756d62657273206c656e677468604482015268040dad2e6dac2e8c6d60bb1b6064820152608401610400565b8681146110375760405162461bcd60e51b815260206004820152602360248201527f52656365697665727320616e6420726f6c6573206c656e677468206d69736d616044820152620e8c6d60eb1b6064820152608401610400565b60005b8781101561118857611180898983818110611057576110576123b3565b905060200201602081019061106c9190611f2e565b88888481811061107e5761107e6123b3565b905060200281019061109091906123f8565b8080601f0160208091040260200160405190810160405280939291908181526020018383808284376000920191909152508a92508991508690508181106110d9576110d96123b3565b90506020028101906110eb91906123f8565b8080601f016020809104026020016040519081016040528093929190818152602001838380828437600092019190915250899250889150879050818110611134576111346123b3565b905060200281019061114691906123f8565b8080601f0160208091040260200160405190810160405280939291908181526020018383808284376000920191909152506103ae92505050565b60010161103a565b505050505050505050565b61119b611497565b6001600160a01b0381166111c557604051631e4fbdf760e01b815260006004820152602401610400565b6111ce816115f8565b50565b60006001600160e01b031982166380ac58cd60e01b148061120257506001600160e01b03198216635b5e139f60e01b145b806103a857506301ffc9a760e01b6001600160e01b03198316146103a8565b6000805b600a5481101561127757826001600160a01b0316600a828154811061124c5761124c6123b3565b6000918252602090912001546001600160a01b03160361126f5750600192915050565b600101611225565b50600092915050565b6000805b600b54811015611277578260405160200161129f919061235b565b60405160208183030381529060405280519060200120600b82815481106112c8576112c86123b3565b906000526020600020016040516020016112e2919061243f565b60405160208183030381529060405280519060200120036113065750600192915050565b600101611284565b6000805b600c54811015611277578260405160200161132d919061235b565b60405160208183030381529060405280519060200120600c8281548110611356576113566123b3565b90600052602060002001604051602001611370919061243f565b60405160208183030381529060405280519060200120036113945750600192915050565b600101611312565b6001600160a01b0382166113c657604051633250574960e11b815260006004820152602401610400565b60006113d4838360006114c4565b90506001600160a01b03811615610888576040516339e3563760e11b815260006004820152602401610400565b6000828152600660205260409020611419828261229b565b506040518281527ff8e1a15aba9398e019f0b49df1a4fde98ee17ae345cb5f6b5e2c27f5033e8ce79060200160405180910390a15050565b6000818152600260205260408120546001600160a01b0316806103a857604051637e27328960e01b815260048101849052602401610400565b6108888383836001611887565b6007546001600160a01b03163314610aed5760405163118cdaa760e01b8152336004820152602401610400565b6000828152600260205260408120546001600160a01b03908116908316156114f1576114f181848661198d565b6001600160a01b0381161561152f5761150e600085600080611887565b6001600160a01b038116600090815260036020526040902080546000190190555b6001600160a01b0385161561155e576001600160a01b0385166000908152600360205260409020805460010190555b60008481526002602052604080822080546001600160a01b0319166001600160a01b0389811691821790925591518793918516917fddf252ad1be2c89b69c2b068fc378daa952ba7f163c4a11628f55a4df523b3ef91a4949350505050565b60006115cc60008360006114c4565b90506001600160a01b03811661082757604051637e27328960e01b815260048101839052602401610400565b600780546001600160a01b038381166001600160a01b0319831681179093556040519116919082907f8be0079c531659141344cd1fd0a4f28419497f9722a3daafe3b4186f6b6457e090600090a35050565b6001600160a01b03821661167c57604051630b61174360e31b81526001600160a01b0383166004820152602401610400565b6001600160a01b03838116600081815260056020908152604080832094871680845294825291829020805460ff191686151590811790915591519182527f17307eab39ab6107e8899845ad3d59bd9653f200f220920489ca2b5937696c31910160405180910390a3505050565b6001600160a01b0383163b156109eb57604051630a85bd0160e11b81526001600160a01b0384169063150b7a029061172b9033908890879087906004016124b5565b6020604051808303816000875af1925050508015611766575060408051601f3d908101601f19168201909252611763918101906124f2565b60015b6117cf573d808015611794576040519150601f19603f3d011682016040523d82523d6000602084013e611799565b606091505b5080516000036117c757604051633250574960e11b81526001600160a01b0385166004820152602401610400565b805181602001fd5b6001600160e01b03198116630a85bd0160e11b1461180b57604051633250574960e11b81526001600160a01b0385166004820152602401610400565b5050505050565b606061181d82611451565b50600061183560408051602081019091526000815290565b905060008151116118555760405180602001604052806000815250611880565b8061185f846119f1565b6040516020016118709291906123c9565b6040516020818303038152906040525b9392505050565b808061189b57506001600160a01b03821615155b1561195d5760006118ab84611451565b90506001600160a01b038316158015906118d75750826001600160a01b0316816001600160a01b031614155b80156118ea57506118e88184610eeb565b155b156119135760405163a9fbf51f60e01b81526001600160a01b0384166004820152602401610400565b811561195b5783856001600160a01b0316826001600160a01b03167f8c5be1e5ebec7d5bd14f71427d1e84f3dd0314c0f7b2291e5b200ac8c7c3b92560405160405180910390a45b505b5050600090815260046020526040902080546001600160a01b0319166001600160a01b0392909216919091179055565b611998838383611a84565b610888576001600160a01b0383166119c657604051637e27328960e01b815260048101829052602401610400565b60405163177e802f60e01b81526001600160a01b038316600482015260248101829052604401610400565b606060006119fe83611ae7565b600101905060008167ffffffffffffffff811115611a1e57611a1e611c5c565b6040519080825280601f01601f191660200182016040528015611a48576020820181803683370190505b5090508181016020015b600019016f181899199a1a9b1b9c1cb0b131b232b360811b600a86061a8153600a8504945084611a5257509392505050565b60006001600160a01b03831615801590610ee35750826001600160a01b0316846001600160a01b03161480611abe5750611abe8484610eeb565b80610ee35750506000908152600460205260409020546001600160a01b03908116911614919050565b60008072184f03e93ff9f4daa797ed6e38ed64bf6a1f0160401b8310611b265772184f03e93ff9f4daa797ed6e38ed64bf6a1f0160401b830492506040015b6d04ee2d6d415b85acef81000000008310611b52576d04ee2d6d415b85acef8100000000830492506020015b662386f26fc100008310611b7057662386f26fc10000830492506010015b6305f5e1008310611b88576305f5e100830492506008015b6127108310611b9c57612710830492506004015b60648310611bae576064830492506002015b600a83106103a85760010192915050565b508054611bcb90612211565b6000825580601f10611bdb575050565b601f0160209004906000526020600020908101906111ce91905b80821115611c095760008155600101611bf5565b5090565b6001600160e01b0319811681146111ce57600080fd5b600060208284031215611c3557600080fd5b813561188081611c0d565b80356001600160a01b0381168114611c5757600080fd5b919050565b634e487b7160e01b600052604160045260246000fd5b600067ffffffffffffffff80841115611c8d57611c8d611c5c565b604051601f8501601f19908116603f01168101908282118183101715611cb557611cb5611c5c565b81604052809350858152868686011115611cce57600080fd5b858560208301376000602087830101525050509392505050565b600082601f830112611cf957600080fd5b61188083833560208501611c72565b60008060008060808587031215611d1e57600080fd5b611d2785611c40565b9350602085013567ffffffffffffffff80821115611d4457600080fd5b611d5088838901611ce8565b94506040870135915080821115611d6657600080fd5b611d7288838901611ce8565b93506060870135915080821115611d8857600080fd5b50611d9587828801611ce8565b91505092959194509250565b60005b83811015611dbc578181015183820152602001611da4565b50506000910152565b60008151808452611ddd816020860160208601611da1565b601f01601f19169290920160200192915050565b6020815260006118806020830184611dc5565b600060208284031215611e1657600080fd5b5035919050565b60008060408385031215611e3057600080fd5b611e3983611c40565b946020939093013593505050565b60008060408385031215611e5a57600080fd5b82359150602083013567ffffffffffffffff811115611e7857600080fd5b611e8485828601611ce8565b9150509250929050565b600060208083016020845280855180835260408601915060408160051b87010192506020870160005b82811015611ee557603f19888603018452611ed3858351611dc5565b94509285019290850190600101611eb7565b5092979650505050505050565b600080600060608486031215611f0757600080fd5b611f1084611c40565b9250611f1e60208501611c40565b9150604084013590509250925092565b600060208284031215611f4057600080fd5b61188082611c40565b848152608060208201526000611f626080830186611dc5565b8281036040840152611f748186611dc5565b90508281036060840152611f888185611dc5565b979650505050505050565b6020808252825182820181905260009190848201906040850190845b81811015611fd45783516001600160a01b031683529284019291840191600101611faf565b50909695505050505050565b60008083601f840112611ff257600080fd5b50813567ffffffffffffffff81111561200a57600080fd5b6020830191508360208260051b850101111561202557600080fd5b9250929050565b6000806020838503121561203f57600080fd5b823567ffffffffffffffff81111561205657600080fd5b61206285828601611fe0565b90969095509350505050565b6000806040838503121561208157600080fd5b61208a83611c40565b91506020830135801515811461209f57600080fd5b809150509250929050565b600080600080608085870312156120c057600080fd5b6120c985611c40565b93506120d760208601611c40565b925060408501359150606085013567ffffffffffffffff8111156120fa57600080fd5b8501601f8101871361210b57600080fd5b611d9587823560208401611c72565b6000806040838503121561212d57600080fd5b61213683611c40565b915061214460208401611c40565b90509250929050565b6000806000806000806000806080898b03121561216957600080fd5b883567ffffffffffffffff8082111561218157600080fd5b61218d8c838d01611fe0565b909a50985060208b01359150808211156121a657600080fd5b6121b28c838d01611fe0565b909850965060408b01359150808211156121cb57600080fd5b6121d78c838d01611fe0565b909650945060608b01359150808211156121f057600080fd5b506121fd8b828c01611fe0565b999c989b5096995094979396929594505050565b600181811c9082168061222557607f821691505b60208210810361224557634e487b7160e01b600052602260045260246000fd5b50919050565b601f821115610888576000816000526020600020601f850160051c810160208610156122745750805b601f850160051c820191505b8181101561229357828155600101612280565b505050505050565b815167ffffffffffffffff8111156122b5576122b5611c5c565b6122c9816122c38454612211565b8461224b565b602080601f8311600181146122fe57600084156122e65750858301515b600019600386901b1c1916600185901b178555612293565b600085815260208120601f198616915b8281101561232d5788860151825594840194600190910190840161230e565b508582101561234b5787850151600019600388901b60f8161c191681555b5050505050600190811b01905550565b6000825161236d818460208701611da1565b9190910192915050565b634e487b7160e01b600052601160045260246000fd5b808201808211156103a8576103a8612377565b818103818111156103a8576103a8612377565b634e487b7160e01b600052603260045260246000fd5b600083516123db818460208801611da1565b8351908301906123ef818360208801611da1565b01949350505050565b6000808335601e1984360301811261240f57600080fd5b83018035915067ffffffffffffffff82111561242a57600080fd5b60200191503681900382131561202557600080fd5b600080835461244d81612211565b60018281168015612465576001811461247a576124a9565b60ff19841687528215158302870194506124a9565b8760005260208060002060005b858110156124a05781548a820152908401908201612487565b50505082870194505b50929695505050505050565b6001600160a01b03858116825284166020820152604081018390526080606082018190526000906124e890830184611dc5565b9695505050505050565b60006020828403121561250457600080fd5b815161188081611c0d56fea264697066735822122090804283c85fbce21b104d55a5d98d6685fe110d21747d86a4269ea484169efd64736f6c63430008180033",
  "linkReferences": {},
  "deployedLinkReferences": {}
}