{
  "_format": "hh-sol-artifact-1",
  "contractName": "BaseERC20",
  "sourceName": "contracts/BaseERC20.sol",
  "abi": [
    {
      "inputs": [
        {
          "internalType": "string",
          "name": "name_",
          "type": "string"
        },
        {
          "internalType": "string",
          "name": "symbol_",
          "type": "string"
        }
      ],
      "stateMutability": "nonpayable",
      "type": "constructor"
    },
    {
      "anonymous": false,
      "inputs": [
        {
          "indexed": true,
          "internalType": "address",
          "name": "from",
          "type": "address"
        },
        {
          "indexed": false,
          "internalType": "uint256",
          "name": "amount",
          "type": "uint256"
        }
      ],
      "name": "TokenDeposit",
      "type": "event"
    },
    {
      "anonymous": false,
      "inputs": [
        {
          "indexed": true,
          "internalType": "address",
          "name": "from",
          "type": "address"
        },
        {
          "indexed": true,
          "internalType": "address",
          "name": "to",
          "type": "address"
        },
        {
          "indexed": false,
          "internalType": "uint256",
          "name": "amount",
          "type": "uint256"
        }
      ],
      "name": "TokenTransfer",
      "type": "event"
    },
    {
      "anonymous": false,
      "inputs": [
        {
          "indexed": true,
          "internalType": "address",
          "name": "from",
          "type": "address"
        },
        {
          "indexed": false,
          "internalType": "uint256",
          "name": "amount",
          "type": "uint256"
        }
      ],
      "name": "TokenWithdraw",
      "type": "event"
    },
    {
      "inputs": [
        {
          "internalType": "address",
          "name": "account",
          "type": "address"
        }
      ],
      "name": "balanceOf",
      "outputs": [
        {
          "internalType": "uint256",
          "name": "",
          "type": "uint256"
        }
      ],
      "stateMutability": "view",
      "type": "function"
    },
    {
      "inputs": [
        {
          "internalType": "address",
          "name": "account",
          "type": "address"
        }
      ],
      "name": "bankBalanceOf",
      "outputs": [
        {
          "internalType": "uint256",
          "name": "",
          "type": "uint256"
        }
      ],
      "stateMutability": "view",
      "type": "function"
    },
    {
      "inputs": [],
      "name": "bankTotalDeposit",
      "outputs": [
        {
          "internalType": "uint256",
          "name": "",
          "type": "uint256"
        }
      ],
      "stateMutability": "view",
      "type": "function"
    },
    {
      "inputs": [],
      "name": "baseERC20",
      "outputs": [
        {
          "internalType": "contract BaseIERC20",
          "name": "",
          "type": "address"
        }
      ],
      "stateMutability": "view",
      "type": "function"
    },
    {
      "inputs": [
        {
          "internalType": "uint256",
          "name": "amount",
          "type": "uint256"
        }
      ],
      "name": "deposit",
      "outputs": [],
      "stateMutability": "nonpayable",
      "type": "function"
    },
    {
      "inputs": [],
      "name": "name",
      "outputs": [
        {
          "internalType": "string",
          "name": "",
          "type": "string"
        }
      ],
      "stateMutability": "view",
      "type": "function"
    },
    {
      "inputs": [],
      "name": "owner",
      "outputs": [
        {
          "internalType": "address",
          "name": "",
          "type": "address"
        }
      ],
      "stateMutability": "view",
      "type": "function"
    },
    {
      "inputs": [],
      "name": "symbol",
      "outputs": [
        {
          "internalType": "string",
          "name": "",
          "type": "string"
        }
      ],
      "stateMutability": "view",
      "type": "function"
    },
    {
      "inputs": [],
      "name": "totalSupply",
      "outputs": [
        {
          "internalType": "uint256",
          "name": "",
          "type": "uint256"
        }
      ],
      "stateMutability": "pure",
      "type": "function"
    },
    {
      "inputs": [
        {
          "internalType": "address",
          "name": "to",
          "type": "address"
        },
        {
          "internalType": "uint256",
          "name": "amount",
          "type": "uint256"
        }
      ],
      "name": "transfer",
      "outputs": [],
      "stateMutability": "nonpayable",
      "type": "function"
    },
    {
      "inputs": [
        {
          "internalType": "uint256",
          "name": "amount",
          "type": "uint256"
        }
      ],
      "name": "withdraw",
      "outputs": [],
      "stateMutability": "nonpayable",
      "type": "function"
    }
  ],
  "bytecode": "0x60806040523480156200001157600080fd5b5060405162001ad938038062001ad983398181016040528101906200003791906200029f565b81600190816200004891906200056f565b5080600290816200005a91906200056f565b5033600460006101000a81548173ffffffffffffffffffffffffffffffffffffffff021916908373ffffffffffffffffffffffffffffffffffffffff1602179055506103e860056000600460009054906101000a900473ffffffffffffffffffffffffffffffffffffffff1673ffffffffffffffffffffffffffffffffffffffff1673ffffffffffffffffffffffffffffffffffffffff16815260200190815260200160002081905550505062000656565b6000604051905090565b600080fd5b600080fd5b600080fd5b600080fd5b6000601f19601f8301169050919050565b7f4e487b7100000000000000000000000000000000000000000000000000000000600052604160045260246000fd5b62000175826200012a565b810181811067ffffffffffffffff821117156200019757620001966200013b565b5b80604052505050565b6000620001ac6200010c565b9050620001ba82826200016a565b919050565b600067ffffffffffffffff821115620001dd57620001dc6200013b565b5b620001e8826200012a565b9050602081019050919050565b60005b8381101562000215578082015181840152602081019050620001f8565b60008484015250505050565b6000620002386200023284620001bf565b620001a0565b90508281526020810184848401111562000257576200025662000125565b5b62000264848285620001f5565b509392505050565b600082601f83011262000284576200028362000120565b5b81516200029684826020860162000221565b91505092915050565b60008060408385031215620002b957620002b862000116565b5b600083015167ffffffffffffffff811115620002da57620002d96200011b565b5b620002e8858286016200026c565b925050602083015167ffffffffffffffff8111156200030c576200030b6200011b565b5b6200031a858286016200026c565b9150509250929050565b600081519050919050565b7f4e487b7100000000000000000000000000000000000000000000000000000000600052602260045260246000fd5b600060028204905060018216806200037757607f821691505b6020821081036200038d576200038c6200032f565b5b50919050565b60008190508160005260206000209050919050565b60006020601f8301049050919050565b600082821b905092915050565b600060088302620003f77fffffffffffffffffffffffffffffffffffffffffffffffffffffffffffffffff82620003b8565b620004038683620003b8565b95508019841693508086168417925050509392505050565b6000819050919050565b6000819050919050565b6000620004506200044a62000444846200041b565b62000425565b6200041b565b9050919050565b6000819050919050565b6200046c836200042f565b620004846200047b8262000457565b848454620003c5565b825550505050565b600090565b6200049b6200048c565b620004a881848462000461565b505050565b5b81811015620004d057620004c460008262000491565b600181019050620004ae565b5050565b601f8211156200051f57620004e98162000393565b620004f484620003a8565b8101602085101562000504578190505b6200051c6200051385620003a8565b830182620004ad565b50505b505050565b600082821c905092915050565b6000620005446000198460080262000524565b1980831691505092915050565b60006200055f838362000531565b9150826002028217905092915050565b6200057a8262000324565b67ffffffffffffffff8111156200059657620005956200013b565b5b620005a282546200035e565b620005af828285620004d4565b600060209050601f831160018114620005e75760008415620005d2578287015190505b620005de858262000551565b8655506200064e565b601f198416620005f78662000393565b60005b828110156200062157848901518255600182019150602085019450602081019050620005fa565b868310156200064157848901516200063d601f89168262000531565b8355505b6001600288020188555050505b505050505050565b61147380620006666000396000f3fe608060405234801561001057600080fd5b50600436106100a95760003560e01c806381983cd91161007157806381983cd9146101665780638da5cb5b1461018457806395d89b41146101a257806397e5311c146101c0578063a9059cbb146101de578063b6b55f25146101fa576100a9565b806306fdde03146100ae57806318160ddd146100cc5780632e1a7d4d146100ea57806365513fe51461010657806370a0823114610136575b600080fd5b6100b6610216565b6040516100c39190610e0d565b60405180910390f35b6100d46102a8565b6040516100e19190610e48565b60405180910390f35b61010460048036038101906100ff9190610e94565b6102b2565b005b610120600480360381019061011b9190610f1f565b6105a0565b60405161012d9190610e48565b60405180910390f35b610150600480360381019061014b9190610f1f565b6105e9565b60405161015d9190610e48565b60405180910390f35b61016e610632565b60405161017b9190610e48565b60405180910390f35b61018c61063c565b6040516101999190610f5b565b60405180910390f35b6101aa610662565b6040516101b79190610e0d565b60405180910390f35b6101c86106f4565b6040516101d59190610fd5565b60405180910390f35b6101f860048036038101906101f39190610ff0565b610718565b005b610214600480360381019061020f9190610e94565b610911565b005b6060600180546102259061105f565b80601f01602080910402602001604051908101604052809291908181526020018280546102519061105f565b801561029e5780601f106102735761010080835404028352916020019161029e565b820191906000526020600020905b81548152906001019060200180831161028157829003601f168201915b5050505050905090565b60006103e8905090565b60008060009054906101000a900473ffffffffffffffffffffffffffffffffffffffff1673ffffffffffffffffffffffffffffffffffffffff166370a08231336040518263ffffffff1660e01b815260040161030e9190610f5b565b602060405180830381865afa15801561032b573d6000803e3d6000fd5b505050506040513d601f19601f8201168201806040525081019061034f91906110a5565b1161038f576040517f08c379a00000000000000000000000000000000000000000000000000000000081526004016103869061111e565b60405180910390fd5b3373ffffffffffffffffffffffffffffffffffffffff16600460009054906101000a900473ffffffffffffffffffffffffffffffffffffffff1673ffffffffffffffffffffffffffffffffffffffff160361041f576040517f08c379a00000000000000000000000000000000000000000000000000000000081526004016104169061118a565b60405180910390fd5b60003390506000600460009054906101000a900473ffffffffffffffffffffffffffffffffffffffff1690506000600660008473ffffffffffffffffffffffffffffffffffffffff1673ffffffffffffffffffffffffffffffffffffffff168152602001908152602001600020549050838110156104d2576040517f08c379a00000000000000000000000000000000000000000000000000000000081526004016104c99061121c565b60405180910390fd5b6104dd828486610b77565b83600660008573ffffffffffffffffffffffffffffffffffffffff1673ffffffffffffffffffffffffffffffffffffffff168152602001908152602001600020600082825461052c919061126b565b925050819055508360036000828254610545919061126b565b925050819055508273ffffffffffffffffffffffffffffffffffffffff167f68577e4d693c1b056a60bc4e39438810239a0bfe64869c4eb7e3baebb5f65634856040516105929190610e48565b60405180910390a250505050565b6000600660008373ffffffffffffffffffffffffffffffffffffffff1673ffffffffffffffffffffffffffffffffffffffff168152602001908152602001600020549050919050565b6000600560008373ffffffffffffffffffffffffffffffffffffffff1673ffffffffffffffffffffffffffffffffffffffff168152602001908152602001600020549050919050565b6000600354905090565b600460009054906101000a900473ffffffffffffffffffffffffffffffffffffffff1681565b6060600280546106719061105f565b80601f016020809104026020016040519081016040528092919081815260200182805461069d9061105f565b80156106ea5780601f106106bf576101008083540402835291602001916106ea565b820191906000526020600020905b8154815290600101906020018083116106cd57829003601f168201915b5050505050905090565b60008054906101000a900473ffffffffffffffffffffffffffffffffffffffff1681565b60008060009054906101000a900473ffffffffffffffffffffffffffffffffffffffff1673ffffffffffffffffffffffffffffffffffffffff166370a08231336040518263ffffffff1660e01b81526004016107749190610f5b565b602060405180830381865afa158015610791573d6000803e3d6000fd5b505050506040513d601f19601f820116820180604052508101906107b591906110a5565b116107f5576040517f08c379a00000000000000000000000000000000000000000000000000000000081526004016107ec9061111e565b60405180910390fd5b3373ffffffffffffffffffffffffffffffffffffffff16600460009054906101000a900473ffffffffffffffffffffffffffffffffffffffff1673ffffffffffffffffffffffffffffffffffffffff16036108fc578060035460056000600460009054906101000a900473ffffffffffffffffffffffffffffffffffffffff1673ffffffffffffffffffffffffffffffffffffffff1673ffffffffffffffffffffffffffffffffffffffff168152602001908152602001600020546108ba919061126b565b10156108fb576040517f08c379a00000000000000000000000000000000000000000000000000000000081526004016108f290611311565b60405180910390fd5b5b600033905061090c818484610b77565b505050565b60008060009054906101000a900473ffffffffffffffffffffffffffffffffffffffff1673ffffffffffffffffffffffffffffffffffffffff166370a08231336040518263ffffffff1660e01b815260040161096d9190610f5b565b602060405180830381865afa15801561098a573d6000803e3d6000fd5b505050506040513d601f19601f820116820180604052508101906109ae91906110a5565b116109ee576040517f08c379a00000000000000000000000000000000000000000000000000000000081526004016109e59061111e565b60405180910390fd5b3373ffffffffffffffffffffffffffffffffffffffff16600460009054906101000a900473ffffffffffffffffffffffffffffffffffffffff1673ffffffffffffffffffffffffffffffffffffffff1603610a7e576040517f08c379a0000000000000000000000000000000000000000000000000000000008152600401610a759061118a565b60405180910390fd5b60003390506000600460009054906101000a900473ffffffffffffffffffffffffffffffffffffffff169050610ab5828285610b77565b82600660008473ffffffffffffffffffffffffffffffffffffffff1673ffffffffffffffffffffffffffffffffffffffff1681526020019081526020016000206000828254610b049190611331565b925050819055508260036000828254610b1d9190611331565b925050819055508173ffffffffffffffffffffffffffffffffffffffff167f20b3fc91390f6ceba342f697a9490734680fd3556633f40efa146f1dbe79d05f84604051610b6a9190610e48565b60405180910390a2505050565b600073ffffffffffffffffffffffffffffffffffffffff168273ffffffffffffffffffffffffffffffffffffffff1603610be6576040517f08c379a0000000000000000000000000000000000000000000000000000000008152600401610bdd906113b1565b60405180910390fd5b6000600560008573ffffffffffffffffffffffffffffffffffffffff1673ffffffffffffffffffffffffffffffffffffffff16815260200190815260200160002054905081811015610c6d576040517f08c379a0000000000000000000000000000000000000000000000000000000008152600401610c649061141d565b60405180910390fd5b8181610c79919061126b565b600560008673ffffffffffffffffffffffffffffffffffffffff1673ffffffffffffffffffffffffffffffffffffffff1681526020019081526020016000208190555081600560008573ffffffffffffffffffffffffffffffffffffffff1673ffffffffffffffffffffffffffffffffffffffff1681526020019081526020016000206000828254610d0b9190611331565b925050819055508273ffffffffffffffffffffffffffffffffffffffff168473ffffffffffffffffffffffffffffffffffffffff167fd0ed88a3f042c6bbb1e3ea406079b5f2b4b198afccaa535d837f4c63abbc4de684604051610d6f9190610e48565b60405180910390a350505050565b600081519050919050565b600082825260208201905092915050565b60005b83811015610db7578082015181840152602081019050610d9c565b60008484015250505050565b6000601f19601f8301169050919050565b6000610ddf82610d7d565b610de98185610d88565b9350610df9818560208601610d99565b610e0281610dc3565b840191505092915050565b60006020820190508181036000830152610e278184610dd4565b905092915050565b6000819050919050565b610e4281610e2f565b82525050565b6000602082019050610e5d6000830184610e39565b92915050565b600080fd5b610e7181610e2f565b8114610e7c57600080fd5b50565b600081359050610e8e81610e68565b92915050565b600060208284031215610eaa57610ea9610e63565b5b6000610eb884828501610e7f565b91505092915050565b600073ffffffffffffffffffffffffffffffffffffffff82169050919050565b6000610eec82610ec1565b9050919050565b610efc81610ee1565b8114610f0757600080fd5b50565b600081359050610f1981610ef3565b92915050565b600060208284031215610f3557610f34610e63565b5b6000610f4384828501610f0a565b91505092915050565b610f5581610ee1565b82525050565b6000602082019050610f706000830184610f4c565b92915050565b6000819050919050565b6000610f9b610f96610f9184610ec1565b610f76565b610ec1565b9050919050565b6000610fad82610f80565b9050919050565b6000610fbf82610fa2565b9050919050565b610fcf81610fb4565b82525050565b6000602082019050610fea6000830184610fc6565b92915050565b6000806040838503121561100757611006610e63565b5b600061101585828601610f0a565b925050602061102685828601610e7f565b9150509250929050565b7f4e487b7100000000000000000000000000000000000000000000000000000000600052602260045260246000fd5b6000600282049050600182168061107757607f821691505b60208210810361108a57611089611030565b5b50919050565b60008151905061109f81610e68565b92915050565b6000602082840312156110bb576110ba610e63565b5b60006110c984828501611090565b91505092915050565b7f6e6f74204e4654206d656d626572000000000000000000000000000000000000600082015250565b6000611108600e83610d88565b9150611113826110d2565b602082019050919050565b60006020820190508181036000830152611137816110fb565b9050919050565b7f4f776e65722063616e6e6f742065786563757465000000000000000000000000600082015250565b6000611174601483610d88565b915061117f8261113e565b602082019050919050565b600060208201905081810360008301526111a381611167565b9050919050565b7f416e20616d6f756e742067726561746572207468616e20796f757220746f6b6560008201527f6e42616e6b2062616c616e636521000000000000000000000000000000000000602082015250565b6000611206602e83610d88565b9150611211826111aa565b604082019050919050565b60006020820190508181036000830152611235816111f9565b9050919050565b7f4e487b7100000000000000000000000000000000000000000000000000000000600052601160045260246000fd5b600061127682610e2f565b915061128183610e2f565b92508282039050818111156112995761129861123c565b5b92915050565b7f416d6f756e74732067726561746572207468616e2074686520746f74616c207360008201527f7570706c792063616e6e6f74206265207472616e736665727265640000000000602082015250565b60006112fb603b83610d88565b91506113068261129f565b604082019050919050565b6000602082019050818103600083015261132a816112ee565b9050919050565b600061133c82610e2f565b915061134783610e2f565b925082820190508082111561135f5761135e61123c565b5b92915050565b7f453a5a4143425346540000000000000000000000000000000000000000000000600082015250565b600061139b600983610d88565b91506113a682611365565b602082019050919050565b600060208201905081810360008301526113ca8161138e565b9050919050565b7f453a494200000000000000000000000000000000000000000000000000000000600082015250565b6000611407600483610d88565b9150611412826113d1565b602082019050919050565b60006020820190508181036000830152611436816113fa565b905091905056fea2646970667358221220b29688be2edb4a1ec0914a1b3831ccf5acc00009c1a03b61afb25e07c2482a6664736f6c63430008110033",
  "linkReferences": {},
  "deployedLinkReferences": {}
}