{
  "_format": "hh-sol-artifact-1",
  "contractName": "MyNFT",
  "sourceName": "contracts/MyNFT .sol",
  "abi": [
    {
      "inputs": [],
      "stateMutability": "nonpayable",
      "type": "constructor"
    },
    {
      "inputs": [
        {
          "internalType": "address",
          "name": "sender",
          "type": "address"
        },
        {
          "internalType": "uint256",
          "name": "tokenId",
          "type": "uint256"
        },
        {
          "internalType": "address",
          "name": "owner",
          "type": "address"
        }
      ],
      "name": "ERC721IncorrectOwner",
      "type": "error"
    },
    {
      "inputs": [
        {
          "internalType": "address",
          "name": "operator",
          "type": "address"
        },
        {
          "internalType": "uint256",
          "name": "tokenId",
          "type": "uint256"
        }
      ],
      "name": "ERC721InsufficientApproval",
      "type": "error"
    },
    {
      "inputs": [
        {
          "internalType": "address",
          "name": "approver",
          "type": "address"
        }
      ],
      "name": "ERC721InvalidApprover",
      "type": "error"
    },
    {
      "inputs": [
        {
          "internalType": "address",
          "name": "operator",
          "type": "address"
        }
      ],
      "name": "ERC721InvalidOperator",
      "type": "error"
    },
    {
      "inputs": [
        {
          "internalType": "address",
          "name": "owner",
          "type": "address"
        }
      ],
      "name": "ERC721InvalidOwner",
      "type": "error"
    },
    {
      "inputs": [
        {
          "internalType": "address",
          "name": "receiver",
          "type": "address"
        }
      ],
      "name": "ERC721InvalidReceiver",
      "type": "error"
    },
    {
      "inputs": [
        {
          "internalType": "address",
          "name": "sender",
          "type": "address"
        }
      ],
      "name": "ERC721InvalidSender",
      "type": "error"
    },
    {
      "inputs": [
        {
          "internalType": "uint256",
          "name": "tokenId",
          "type": "uint256"
        }
      ],
      "name": "ERC721NonexistentToken",
      "type": "error"
    },
    {
      "inputs": [
        {
          "internalType": "address",
          "name": "owner",
          "type": "address"
        }
      ],
      "name": "OwnableInvalidOwner",
      "type": "error"
    },
    {
      "inputs": [
        {
          "internalType": "address",
          "name": "account",
          "type": "address"
        }
      ],
      "name": "OwnableUnauthorizedAccount",
      "type": "error"
    },
    {
      "anonymous": false,
      "inputs": [
        {
          "indexed": true,
          "internalType": "address",
          "name": "owner",
          "type": "address"
        },
        {
          "indexed": true,
          "internalType": "address",
          "name": "approved",
          "type": "address"
        },
        {
          "indexed": true,
          "internalType": "uint256",
          "name": "tokenId",
          "type": "uint256"
        }
      ],
      "name": "Approval",
      "type": "event"
    },
    {
      "anonymous": false,
      "inputs": [
        {
          "indexed": true,
          "internalType": "address",
          "name": "owner",
          "type": "address"
        },
        {
          "indexed": true,
          "internalType": "address",
          "name": "operator",
          "type": "address"
        },
        {
          "indexed": false,
          "internalType": "bool",
          "name": "approved",
          "type": "bool"
        }
      ],
      "name": "ApprovalForAll",
      "type": "event"
    },
    {
      "anonymous": false,
      "inputs": [
        {
          "indexed": false,
          "internalType": "uint256",
          "name": "_fromTokenId",
          "type": "uint256"
        },
        {
          "indexed": false,
          "internalType": "uint256",
          "name": "_toTokenId",
          "type": "uint256"
        }
      ],
      "name": "BatchMetadataUpdate",
      "type": "event"
    },
    {
      "anonymous": false,
      "inputs": [
        {
          "indexed": false,
          "internalType": "uint256",
          "name": "_tokenId",
          "type": "uint256"
        }
      ],
      "name": "MetadataUpdate",
      "type": "event"
    },
    {
      "anonymous": false,
      "inputs": [
        {
          "indexed": true,
          "internalType": "address",
          "name": "to",
          "type": "address"
        },
        {
          "indexed": true,
          "internalType": "uint256",
          "name": "tokenId",
          "type": "uint256"
        }
      ],
      "name": "Minted",
      "type": "event"
    },
    {
      "anonymous": false,
      "inputs": [
        {
          "indexed": true,
          "internalType": "address",
          "name": "previousOwner",
          "type": "address"
        },
        {
          "indexed": true,
          "internalType": "address",
          "name": "newOwner",
          "type": "address"
        }
      ],
      "name": "OwnershipTransferred",
      "type": "event"
    },
    {
      "anonymous": false,
      "inputs": [
        {
          "indexed": true,
          "internalType": "address",
          "name": "to",
          "type": "address"
        },
        {
          "indexed": true,
          "internalType": "uint256",
          "name": "tokenId",
          "type": "uint256"
        },
        {
          "indexed": false,
          "internalType": "string",
          "name": "uri",
          "type": "string"
        }
      ],
      "name": "TokenURIChanged",
      "type": "event"
    },
    {
      "anonymous": false,
      "inputs": [
        {
          "indexed": true,
          "internalType": "address",
          "name": "from",
          "type": "address"
        },
        {
          "indexed": true,
          "internalType": "address",
          "name": "to",
          "type": "address"
        },
        {
          "indexed": true,
          "internalType": "uint256",
          "name": "tokenId",
          "type": "uint256"
        }
      ],
      "name": "Transfer",
      "type": "event"
    },
    {
      "inputs": [
        {
          "internalType": "address",
          "name": "to",
          "type": "address"
        },
        {
          "internalType": "uint256",
          "name": "tokenId",
          "type": "uint256"
        }
      ],
      "name": "approve",
      "outputs": [],
      "stateMutability": "nonpayable",
      "type": "function"
    },
    {
      "inputs": [
        {
          "internalType": "address",
          "name": "owner",
          "type": "address"
        }
      ],
      "name": "balanceOf",
      "outputs": [
        {
          "internalType": "uint256",
          "name": "",
          "type": "uint256"
        }
      ],
      "stateMutability": "view",
      "type": "function"
    },
    {
      "inputs": [
        {
          "internalType": "uint256",
          "name": "tokenId",
          "type": "uint256"
        }
      ],
      "name": "getApproved",
      "outputs": [
        {
          "internalType": "address",
          "name": "",
          "type": "address"
        }
      ],
      "stateMutability": "view",
      "type": "function"
    },
    {
      "inputs": [
        {
          "internalType": "address",
          "name": "owner",
          "type": "address"
        },
        {
          "internalType": "address",
          "name": "operator",
          "type": "address"
        }
      ],
      "name": "isApprovedForAll",
      "outputs": [
        {
          "internalType": "bool",
          "name": "",
          "type": "bool"
        }
      ],
      "stateMutability": "view",
      "type": "function"
    },
    {
      "inputs": [],
      "name": "name",
      "outputs": [
        {
          "internalType": "string",
          "name": "",
          "type": "string"
        }
      ],
      "stateMutability": "view",
      "type": "function"
    },
    {
      "inputs": [],
      "name": "owner",
      "outputs": [
        {
          "internalType": "address",
          "name": "",
          "type": "address"
        }
      ],
      "stateMutability": "view",
      "type": "function"
    },
    {
      "inputs": [
        {
          "internalType": "uint256",
          "name": "tokenId",
          "type": "uint256"
        }
      ],
      "name": "ownerOf",
      "outputs": [
        {
          "internalType": "address",
          "name": "",
          "type": "address"
        }
      ],
      "stateMutability": "view",
      "type": "function"
    },
    {
      "inputs": [],
      "name": "renounceOwnership",
      "outputs": [],
      "stateMutability": "nonpayable",
      "type": "function"
    },
    {
      "inputs": [
        {
          "internalType": "address",
          "name": "_receiver",
          "type": "address"
        },
        {
          "internalType": "string",
          "name": "uri",
          "type": "string"
        }
      ],
      "name": "safeMint",
      "outputs": [],
      "stateMutability": "nonpayable",
      "type": "function"
    },
    {
      "inputs": [
        {
          "internalType": "address",
          "name": "from",
          "type": "address"
        },
        {
          "internalType": "address",
          "name": "to",
          "type": "address"
        },
        {
          "internalType": "uint256",
          "name": "tokenId",
          "type": "uint256"
        }
      ],
      "name": "safeTransferFrom",
      "outputs": [],
      "stateMutability": "nonpayable",
      "type": "function"
    },
    {
      "inputs": [
        {
          "internalType": "address",
          "name": "from",
          "type": "address"
        },
        {
          "internalType": "address",
          "name": "to",
          "type": "address"
        },
        {
          "internalType": "uint256",
          "name": "tokenId",
          "type": "uint256"
        },
        {
          "internalType": "bytes",
          "name": "data",
          "type": "bytes"
        }
      ],
      "name": "safeTransferFrom",
      "outputs": [],
      "stateMutability": "nonpayable",
      "type": "function"
    },
    {
      "inputs": [
        {
          "internalType": "address",
          "name": "operator",
          "type": "address"
        },
        {
          "internalType": "bool",
          "name": "approved",
          "type": "bool"
        }
      ],
      "name": "setApprovalForAll",
      "outputs": [],
      "stateMutability": "nonpayable",
      "type": "function"
    },
    {
      "inputs": [
        {
          "internalType": "bytes4",
          "name": "interfaceId",
          "type": "bytes4"
        }
      ],
      "name": "supportsInterface",
      "outputs": [
        {
          "internalType": "bool",
          "name": "",
          "type": "bool"
        }
      ],
      "stateMutability": "view",
      "type": "function"
    },
    {
      "inputs": [],
      "name": "symbol",
      "outputs": [
        {
          "internalType": "string",
          "name": "",
          "type": "string"
        }
      ],
      "stateMutability": "view",
      "type": "function"
    },
    {
      "inputs": [
        {
          "internalType": "uint256",
          "name": "tokenId",
          "type": "uint256"
        }
      ],
      "name": "tokenURI",
      "outputs": [
        {
          "internalType": "string",
          "name": "",
          "type": "string"
        }
      ],
      "stateMutability": "view",
      "type": "function"
    },
    {
      "inputs": [],
      "name": "totalSupply",
      "outputs": [
        {
          "internalType": "uint256",
          "name": "",
          "type": "uint256"
        }
      ],
      "stateMutability": "view",
      "type": "function"
    },
    {
      "inputs": [
        {
          "internalType": "address",
          "name": "from",
          "type": "address"
        },
        {
          "internalType": "address",
          "name": "to",
          "type": "address"
        },
        {
          "internalType": "uint256",
          "name": "tokenId",
          "type": "uint256"
        }
      ],
      "name": "transferFrom",
      "outputs": [],
      "stateMutability": "nonpayable",
      "type": "function"
    },
    {
      "inputs": [
        {
          "internalType": "address",
          "name": "newOwner",
          "type": "address"
        }
      ],
      "name": "transferOwnership",
      "outputs": [],
      "stateMutability": "nonpayable",
      "type": "function"
    }
  ],
  "bytecode": "0x60806040523480156200001157600080fd5b503360405180604001604052806005815260200164135e53919560da1b8152506040518060400160405280600381526020016213919560ea1b81525081600090816200005e9190620001aa565b5060016200006d8282620001aa565b5050506001600160a01b0381166200009f57604051631e4fbdf760e01b81526000600482015260240160405180910390fd5b620000aa81620000b1565b5062000276565b600780546001600160a01b038381166001600160a01b0319831681179093556040519116919082907f8be0079c531659141344cd1fd0a4f28419497f9722a3daafe3b4186f6b6457e090600090a35050565b634e487b7160e01b600052604160045260246000fd5b600181811c908216806200012e57607f821691505b6020821081036200014f57634e487b7160e01b600052602260045260246000fd5b50919050565b601f821115620001a5576000816000526020600020601f850160051c81016020861015620001805750805b601f850160051c820191505b81811015620001a1578281556001016200018c565b5050505b505050565b81516001600160401b03811115620001c657620001c662000103565b620001de81620001d7845462000119565b8462000155565b602080601f831160018114620002165760008415620001fd5750858301515b600019600386901b1c1916600185901b178555620001a1565b600085815260208120601f198616915b82811015620002475788860151825594840194600190910190840162000226565b5085821015620002665787850151600019600388901b60f8161c191681555b5050505050600190811b01905550565b6114f180620002866000396000f3fe608060405234801561001057600080fd5b50600436106101165760003560e01c8063715018a6116100a2578063b88d4fde11610071578063b88d4fde1461022a578063c87b56dd1461023d578063d204c45e14610250578063e985e9c514610263578063f2fde38b1461027657600080fd5b8063715018a6146101f65780638da5cb5b146101fe57806395d89b411461020f578063a22cb4651461021757600080fd5b806318160ddd116100e957806318160ddd1461019857806323b872dd146101aa57806342842e0e146101bd5780636352211e146101d057806370a08231146101e357600080fd5b806301ffc9a71461011b57806306fdde0314610143578063081812fc14610158578063095ea7b314610183575b600080fd5b61012e610129366004610f7e565b610289565b60405190151581526020015b60405180910390f35b61014b6102b4565b60405161013a9190610feb565b61016b610166366004610ffe565b610346565b6040516001600160a01b03909116815260200161013a565b610196610191366004611033565b61036f565b005b6008545b60405190815260200161013a565b6101966101b836600461105d565b61037e565b6101966101cb36600461105d565b61040e565b61016b6101de366004610ffe565b61042e565b61019c6101f1366004611099565b610439565b610196610481565b6007546001600160a01b031661016b565b61014b610495565b6101966102253660046110b4565b6104a4565b610196610238366004611106565b6104af565b61014b61024b366004610ffe565b6104c6565b61019661025e3660046111e2565b6105d7565b61012e610271366004611265565b6106c4565b610196610284366004611099565b6106f2565b60006001600160e01b03198216632483248360e11b14806102ae57506102ae82610730565b92915050565b6060600080546102c390611298565b80601f01602080910402602001604051908101604052809291908181526020018280546102ef90611298565b801561033c5780601f106103115761010080835404028352916020019161033c565b820191906000526020600020905b81548152906001019060200180831161031f57829003601f168201915b5050505050905090565b600061035182610780565b506000828152600460205260409020546001600160a01b03166102ae565b61037a8282336107b9565b5050565b6001600160a01b0382166103ad57604051633250574960e11b8152600060048201526024015b60405180910390fd5b60006103ba8383336107c6565b9050836001600160a01b0316816001600160a01b031614610408576040516364283d7b60e01b81526001600160a01b03808616600483015260248201849052821660448201526064016103a4565b50505050565b610429838383604051806020016040528060008152506104af565b505050565b60006102ae82610780565b60006001600160a01b038216610465576040516322718ad960e21b8152600060048201526024016103a4565b506001600160a01b031660009081526003602052604090205490565b6104896108bf565b61049360006108ec565b565b6060600180546102c390611298565b61037a33838361093e565b6104ba84848461037e565b610408848484846109dd565b60606104d182610780565b50600082815260066020526040812080546104eb90611298565b80601f016020809104026020016040519081016040528092919081815260200182805461051790611298565b80156105645780601f1061053957610100808354040283529160200191610564565b820191906000526020600020905b81548152906001019060200180831161054757829003601f168201915b50505050509050600061058260408051602081019091526000815290565b90508051600003610594575092915050565b8151156105c65780826040516020016105ae9291906112d2565b60405160208183030381529060405292505050919050565b6105cf84610b06565b949350505050565b6105df6108bf565b6001600860008282546105f29190611301565b90915550506008546106048482610b7b565b6106448184848080601f016020809104026020016040519081016040528093929190818152602001838380828437600092019190915250610be092505050565b60405181906001600160a01b038616907f30385c845b448a36257a6a1716e6ad2e1bc2cbe333cde1e69fe849ad6511adfe90600090a380846001600160a01b03167f8b781fcc9d1a958b4e7e04390a81f45bdec2dc61341e7b423a537074275dc70d85856040516106b6929190611322565b60405180910390a350505050565b6001600160a01b03918216600090815260056020908152604080832093909416825291909152205460ff1690565b6106fa6108bf565b6001600160a01b03811661072457604051631e4fbdf760e01b8152600060048201526024016103a4565b61072d816108ec565b50565b60006001600160e01b031982166380ac58cd60e01b148061076157506001600160e01b03198216635b5e139f60e01b145b806102ae57506301ffc9a760e01b6001600160e01b03198316146102ae565b6000818152600260205260408120546001600160a01b0316806102ae57604051637e27328960e01b8152600481018490526024016103a4565b6104298383836001610c30565b6000828152600260205260408120546001600160a01b03908116908316156107f3576107f3818486610d36565b6001600160a01b0381161561083157610810600085600080610c30565b6001600160a01b038116600090815260036020526040902080546000190190555b6001600160a01b03851615610860576001600160a01b0385166000908152600360205260409020805460010190555b60008481526002602052604080822080546001600160a01b0319166001600160a01b0389811691821790925591518793918516917fddf252ad1be2c89b69c2b068fc378daa952ba7f163c4a11628f55a4df523b3ef91a4949350505050565b6007546001600160a01b031633146104935760405163118cdaa760e01b81523360048201526024016103a4565b600780546001600160a01b038381166001600160a01b0319831681179093556040519116919082907f8be0079c531659141344cd1fd0a4f28419497f9722a3daafe3b4186f6b6457e090600090a35050565b6001600160a01b03821661097057604051630b61174360e31b81526001600160a01b03831660048201526024016103a4565b6001600160a01b03838116600081815260056020908152604080832094871680845294825291829020805460ff191686151590811790915591519182527f17307eab39ab6107e8899845ad3d59bd9653f200f220920489ca2b5937696c31910160405180910390a3505050565b6001600160a01b0383163b1561040857604051630a85bd0160e11b81526001600160a01b0384169063150b7a0290610a1f903390889087908790600401611351565b6020604051808303816000875af1925050508015610a5a575060408051601f3d908101601f19168201909252610a579181019061138e565b60015b610ac3573d808015610a88576040519150601f19603f3d011682016040523d82523d6000602084013e610a8d565b606091505b508051600003610abb57604051633250574960e11b81526001600160a01b03851660048201526024016103a4565b805181602001fd5b6001600160e01b03198116630a85bd0160e11b14610aff57604051633250574960e11b81526001600160a01b03851660048201526024016103a4565b5050505050565b6060610b1182610780565b506000610b2960408051602081019091526000815290565b90506000815111610b495760405180602001604052806000815250610b74565b80610b5384610d9a565b604051602001610b649291906112d2565b6040516020818303038152906040525b9392505050565b6001600160a01b038216610ba557604051633250574960e11b8152600060048201526024016103a4565b6000610bb3838360006107c6565b90506001600160a01b03811615610429576040516339e3563760e11b8152600060048201526024016103a4565b6000828152600660205260409020610bf882826113fb565b506040518281527ff8e1a15aba9398e019f0b49df1a4fde98ee17ae345cb5f6b5e2c27f5033e8ce79060200160405180910390a15050565b8080610c4457506001600160a01b03821615155b15610d06576000610c5484610780565b90506001600160a01b03831615801590610c805750826001600160a01b0316816001600160a01b031614155b8015610c935750610c9181846106c4565b155b15610cbc5760405163a9fbf51f60e01b81526001600160a01b03841660048201526024016103a4565b8115610d045783856001600160a01b0316826001600160a01b03167f8c5be1e5ebec7d5bd14f71427d1e84f3dd0314c0f7b2291e5b200ac8c7c3b92560405160405180910390a45b505b5050600090815260046020526040902080546001600160a01b0319166001600160a01b0392909216919091179055565b610d41838383610e2d565b610429576001600160a01b038316610d6f57604051637e27328960e01b8152600481018290526024016103a4565b60405163177e802f60e01b81526001600160a01b0383166004820152602481018290526044016103a4565b60606000610da783610e90565b600101905060008167ffffffffffffffff811115610dc757610dc76110f0565b6040519080825280601f01601f191660200182016040528015610df1576020820181803683370190505b5090508181016020015b600019016f181899199a1a9b1b9c1cb0b131b232b360811b600a86061a8153600a8504945084610dfb57509392505050565b60006001600160a01b038316158015906105cf5750826001600160a01b0316846001600160a01b03161480610e675750610e6784846106c4565b806105cf5750506000908152600460205260409020546001600160a01b03908116911614919050565b60008072184f03e93ff9f4daa797ed6e38ed64bf6a1f0160401b8310610ecf5772184f03e93ff9f4daa797ed6e38ed64bf6a1f0160401b830492506040015b6d04ee2d6d415b85acef81000000008310610efb576d04ee2d6d415b85acef8100000000830492506020015b662386f26fc100008310610f1957662386f26fc10000830492506010015b6305f5e1008310610f31576305f5e100830492506008015b6127108310610f4557612710830492506004015b60648310610f57576064830492506002015b600a83106102ae5760010192915050565b6001600160e01b03198116811461072d57600080fd5b600060208284031215610f9057600080fd5b8135610b7481610f68565b60005b83811015610fb6578181015183820152602001610f9e565b50506000910152565b60008151808452610fd7816020860160208601610f9b565b601f01601f19169290920160200192915050565b602081526000610b746020830184610fbf565b60006020828403121561101057600080fd5b5035919050565b80356001600160a01b038116811461102e57600080fd5b919050565b6000806040838503121561104657600080fd5b61104f83611017565b946020939093013593505050565b60008060006060848603121561107257600080fd5b61107b84611017565b925061108960208501611017565b9150604084013590509250925092565b6000602082840312156110ab57600080fd5b610b7482611017565b600080604083850312156110c757600080fd5b6110d083611017565b9150602083013580151581146110e557600080fd5b809150509250929050565b634e487b7160e01b600052604160045260246000fd5b6000806000806080858703121561111c57600080fd5b61112585611017565b935061113360208601611017565b925060408501359150606085013567ffffffffffffffff8082111561115757600080fd5b818701915087601f83011261116b57600080fd5b81358181111561117d5761117d6110f0565b604051601f8201601f19908116603f011681019083821181831017156111a5576111a56110f0565b816040528281528a60208487010111156111be57600080fd5b82602086016020830137600060208483010152809550505050505092959194509250565b6000806000604084860312156111f757600080fd5b61120084611017565b9250602084013567ffffffffffffffff8082111561121d57600080fd5b818601915086601f83011261123157600080fd5b81358181111561124057600080fd5b87602082850101111561125257600080fd5b6020830194508093505050509250925092565b6000806040838503121561127857600080fd5b61128183611017565b915061128f60208401611017565b90509250929050565b600181811c908216806112ac57607f821691505b6020821081036112cc57634e487b7160e01b600052602260045260246000fd5b50919050565b600083516112e4818460208801610f9b565b8351908301906112f8818360208801610f9b565b01949350505050565b808201808211156102ae57634e487b7160e01b600052601160045260246000fd5b60208152816020820152818360408301376000818301604090810191909152601f909201601f19160101919050565b6001600160a01b038581168252841660208201526040810183905260806060820181905260009061138490830184610fbf565b9695505050505050565b6000602082840312156113a057600080fd5b8151610b7481610f68565b601f821115610429576000816000526020600020601f850160051c810160208610156113d45750805b601f850160051c820191505b818110156113f3578281556001016113e0565b505050505050565b815167ffffffffffffffff811115611415576114156110f0565b611429816114238454611298565b846113ab565b602080601f83116001811461145e57600084156114465750858301515b600019600386901b1c1916600185901b1785556113f3565b600085815260208120601f198616915b8281101561148d5788860151825594840194600190910190840161146e565b50858210156114ab5787850151600019600388901b60f8161c191681555b5050505050600190811b0190555056fea2646970667358221220e97c8221ce994720a3a1ec6510ff9524c038276d30500fcbf7f3bdc13b948bef64736f6c63430008180033",
  "linkReferences": {},
  "deployedLinkReferences": {}
}