{
  "_format": "hh-sol-artifact-1",
  "contractName": "SendChilizFanToken",
  "sourceName": "contracts/SendChilizFanToken.sol",
  "abi": [
    {
      "inputs": [],
      "stateMutability": "nonpayable",
      "type": "constructor"
    },
    {
      "inputs": [
        {
          "internalType": "address",
          "name": "target",
          "type": "address"
        }
      ],
      "name": "AddressEmptyCode",
      "type": "error"
    },
    {
      "inputs": [
        {
          "internalType": "address",
          "name": "account",
          "type": "address"
        }
      ],
      "name": "AddressInsufficientBalance",
      "type": "error"
    },
    {
      "inputs": [
        {
          "internalType": "uint256",
          "name": "totalRequestAmount",
          "type": "uint256"
        },
        {
          "internalType": "uint256",
          "name": "valueFromSender",
          "type": "uint256"
        }
      ],
      "name": "ChilizFanTokenAmountMismatch",
      "type": "error"
    },
    {
      "inputs": [],
      "name": "FailedInnerCall",
      "type": "error"
    },
    {
      "inputs": [],
      "name": "InvalidRecipientAddress",
      "type": "error"
    },
    {
      "inputs": [
        {
          "internalType": "address",
          "name": "owner",
          "type": "address"
        }
      ],
      "name": "OwnableInvalidOwner",
      "type": "error"
    },
    {
      "inputs": [
        {
          "internalType": "address",
          "name": "account",
          "type": "address"
        }
      ],
      "name": "OwnableUnauthorizedAccount",
      "type": "error"
    },
    {
      "inputs": [],
      "name": "ReentrancyGuardReentrantCall",
      "type": "error"
    },
    {
      "inputs": [
        {
          "internalType": "address",
          "name": "token",
          "type": "address"
        }
      ],
      "name": "SafeERC20FailedOperation",
      "type": "error"
    },
    {
      "anonymous": false,
      "inputs": [
        {
          "components": [
            {
              "internalType": "address",
              "name": "token",
              "type": "address"
            },
            {
              "internalType": "address",
              "name": "from",
              "type": "address"
            },
            {
              "internalType": "address",
              "name": "to",
              "type": "address"
            },
            {
              "internalType": "uint256",
              "name": "amount",
              "type": "uint256"
            }
          ],
          "indexed": false,
          "internalType": "struct ISendChilizFanToken.ChilizFanTokenTransferInfo",
          "name": "info",
          "type": "tuple"
        }
      ],
      "name": "ChilizFanTokenTransfer",
      "type": "event"
    },
    {
      "anonymous": false,
      "inputs": [
        {
          "indexed": true,
          "internalType": "address",
          "name": "previousOwner",
          "type": "address"
        },
        {
          "indexed": true,
          "internalType": "address",
          "name": "newOwner",
          "type": "address"
        }
      ],
      "name": "OwnershipTransferred",
      "type": "event"
    },
    {
      "inputs": [],
      "name": "owner",
      "outputs": [
        {
          "internalType": "address",
          "name": "",
          "type": "address"
        }
      ],
      "stateMutability": "view",
      "type": "function"
    },
    {
      "inputs": [],
      "name": "renounceOwnership",
      "outputs": [],
      "stateMutability": "nonpayable",
      "type": "function"
    },
    {
      "inputs": [
        {
          "internalType": "address",
          "name": "tokenAddress",
          "type": "address"
        },
        {
          "components": [
            {
              "internalType": "address payable",
              "name": "to",
              "type": "address"
            },
            {
              "internalType": "uint256",
              "name": "amount",
              "type": "uint256"
            }
          ],
          "internalType": "struct ISendChilizFanToken.SendRequest[]",
          "name": "sendRequests",
          "type": "tuple[]"
        }
      ],
      "name": "sendChilizFanToken",
      "outputs": [],
      "stateMutability": "nonpayable",
      "type": "function"
    },
    {
      "inputs": [
        {
          "internalType": "address",
          "name": "newOwner",
          "type": "address"
        }
      ],
      "name": "transferOwnership",
      "outputs": [],
      "stateMutability": "nonpayable",
      "type": "function"
    }
  ],
  "bytecode": "0x608060405234801561001057600080fd5b50338061003757604051631e4fbdf760e01b81526000600482015260240160405180910390fd5b6100408161004a565b506001805561009a565b600080546001600160a01b038381166001600160a01b0319831681178455604051919092169283917f8be0079c531659141344cd1fd0a4f28419497f9722a3daafe3b4186f6b6457e09190a35050565b6107f7806100a96000396000f3fe608060405234801561001057600080fd5b506004361061004c5760003560e01c8063715018a6146100515780638da5cb5b1461005b578063f2fde38b1461007a578063f50265841461008d575b600080fd5b6100596100a0565b005b600054604080516001600160a01b039092168252519081900360200190f35b61005961008836600461067b565b6100b4565b61005961009b366004610698565b6100f7565b6100a86103c1565b6100b260006103ee565b565b6100bc6103c1565b6001600160a01b0381166100eb57604051631e4fbdf760e01b8152600060048201526024015b60405180910390fd5b6100f4816103ee565b50565b6100ff61043e565b6101076103c1565b826000805b838110156101455784848281811061012657610126610720565b905060400201602001358261013b9190610736565b915060010161010c565b5060006001600160a01b03831663dd62ed3e336040516001600160e01b031960e084901b1681526001600160a01b039091166004820152306024820152604401602060405180830381865afa1580156101a2573d6000803e3d6000fd5b505050506040513d601f19601f820116820180604052508101906101c69190610757565b9050808211156101f35760405163697d393b60e01b815260048101839052602481018290526044016100e2565b60005b848110156103af57600086868381811061021257610212610720565b610228926020604090920201908101915061067b565b6001600160a01b03160361024f5760405163226ccff560e11b815260040160405180910390fd5b6102b13387878481811061026557610265610720565b61027b926020604090920201908101915061067b565b88888581811061028d5761028d610720565b90506040020160200135876001600160a01b0316610468909392919063ffffffff16565b60006040518060800160405280896001600160a01b031681526020016102d43390565b6001600160a01b031681526020018888858181106102f4576102f4610720565b61030a926020604090920201908101915061067b565b6001600160a01b0316815260200188888581811061032a5761032a610720565b9050604002016020013581525090507fc0b8abf8824462d90c3c8758dba2800662d4c0df9baf6ebf228bb40c2d72a6658160405161039e919081516001600160a01b039081168252602080840151821690830152604080840151909116908201526060918201519181019190915260800190565b60405180910390a1506001016101f6565b505050506103bc60018055565b505050565b6000546001600160a01b031633146100b25760405163118cdaa760e01b81523360048201526024016100e2565b600080546001600160a01b038381166001600160a01b0319831681178455604051919092169283917f8be0079c531659141344cd1fd0a4f28419497f9722a3daafe3b4186f6b6457e09190a35050565b60026001540361046157604051633ee5aeb560e01b815260040160405180910390fd5b6002600155565b604080516001600160a01b0385811660248301528416604482015260648082018490528251808303909101815260849091019091526020810180516001600160e01b03166323b872dd60e01b1790526104c29085906104c8565b50505050565b60006104dd6001600160a01b0384168361052b565b905080516000141580156105025750808060200190518101906105009190610770565b155b156103bc57604051635274afe760e01b81526001600160a01b03841660048201526024016100e2565b606061053983836000610542565b90505b92915050565b6060814710156105675760405163cd78605960e01b81523060048201526024016100e2565b600080856001600160a01b031684866040516105839190610792565b60006040518083038185875af1925050503d80600081146105c0576040519150601f19603f3d011682016040523d82523d6000602084013e6105c5565b606091505b50915091506105d58683836105e1565b925050505b9392505050565b6060826105f6576105f18261063d565b6105da565b815115801561060d57506001600160a01b0384163b155b1561063657604051639996b31560e01b81526001600160a01b03851660048201526024016100e2565b50806105da565b80511561064d5780518082602001fd5b604051630a12f52160e11b815260040160405180910390fd5b6001600160a01b03811681146100f457600080fd5b60006020828403121561068d57600080fd5b81356105da81610666565b6000806000604084860312156106ad57600080fd5b83356106b881610666565b9250602084013567ffffffffffffffff808211156106d557600080fd5b818601915086601f8301126106e957600080fd5b8135818111156106f857600080fd5b8760208260061b850101111561070d57600080fd5b6020830194508093505050509250925092565b634e487b7160e01b600052603260045260246000fd5b8082018082111561053c57634e487b7160e01b600052601160045260246000fd5b60006020828403121561076957600080fd5b5051919050565b60006020828403121561078257600080fd5b815180151581146105da57600080fd5b6000825160005b818110156107b35760208186018101518583015201610799565b50600092019182525091905056fea2646970667358221220530b802a7740e0a3d450934778029d0f7067fcad2b48b1cae428a416fb7acf9c64736f6c63430008180033",
  "linkReferences": {},
  "deployedLinkReferences": {}
}